{
  "_format": "hh-sol-artifact-1",
  "contractName": "CarrotFarm",
  "sourceName": "contracts/carrotFarm.sol",
  "abi": [
    {
      "inputs": [
        {
          "internalType": "contract IERC20",
          "name": "_daiToken",
          "type": "address"
        },
        {
          "internalType": "contract Carrot",
          "name": "_crtToken",
          "type": "address"
        }
      ],
      "stateMutability": "nonpayable",
      "type": "constructor"
    },
    {
      "anonymous": false,
      "inputs": [
        {
          "indexed": true,
          "internalType": "address",
          "name": "from",
          "type": "address"
        },
        {
          "indexed": false,
          "internalType": "uint256",
          "name": "amount",
          "type": "uint256"
        }
      ],
      "name": "Stake",
      "type": "event"
    },
    {
      "anonymous": false,
      "inputs": [
        {
          "indexed": true,
          "internalType": "address",
          "name": "from",
          "type": "address"
        },
        {
          "indexed": false,
          "internalType": "uint256",
          "name": "amount",
          "type": "uint256"
        }
      ],
      "name": "Unstake",
      "type": "event"
    },
    {
      "anonymous": false,
      "inputs": [
        {
          "indexed": true,
          "internalType": "address",
          "name": "to",
          "type": "address"
        },
        {
          "indexed": false,
          "internalType": "uint256",
          "name": "amount",
          "type": "uint256"
        }
      ],
      "name": "YieldWithdraw",
      "type": "event"
    },
    {
      "inputs": [
        {
          "internalType": "address",
          "name": "user",
          "type": "address"
        }
      ],
      "name": "calculateYieldTime",
      "outputs": [
        {
          "internalType": "uint256",
          "name": "",
          "type": "uint256"
        }
      ],
      "stateMutability": "view",
      "type": "function"
    },
    {
      "inputs": [
        {
          "internalType": "address",
          "name": "",
          "type": "address"
        }
      ],
      "name": "crtBalance",
      "outputs": [
        {
          "internalType": "uint256",
          "name": "",
          "type": "uint256"
        }
      ],
      "stateMutability": "view",
      "type": "function"
    },
    {
      "inputs": [],
      "name": "crtToken",
      "outputs": [
        {
          "internalType": "contract Carrot",
          "name": "",
          "type": "address"
        }
      ],
      "stateMutability": "view",
      "type": "function"
    },
    {
      "inputs": [],
      "name": "daiToken",
      "outputs": [
        {
          "internalType": "contract IERC20",
          "name": "",
          "type": "address"
        }
      ],
      "stateMutability": "view",
      "type": "function"
    },
    {
      "inputs": [],
      "name": "getCrtBal",
      "outputs": [
        {
          "internalType": "uint256",
          "name": "",
          "type": "uint256"
        }
      ],
      "stateMutability": "view",
      "type": "function"
    },
    {
      "inputs": [],
      "name": "getIsStaking",
      "outputs": [
        {
          "internalType": "bool",
          "name": "",
          "type": "bool"
        }
      ],
      "stateMutability": "view",
      "type": "function"
    },
    {
      "inputs": [],
      "name": "getStakeBal",
      "outputs": [
        {
          "internalType": "uint256",
          "name": "",
          "type": "uint256"
        }
      ],
      "stateMutability": "view",
      "type": "function"
    },
    {
      "inputs": [],
      "name": "getStartTime",
      "outputs": [
        {
          "internalType": "uint256",
          "name": "",
          "type": "uint256"
        }
      ],
      "stateMutability": "view",
      "type": "function"
    },
    {
      "inputs": [
        {
          "internalType": "address",
          "name": "",
          "type": "address"
        }
      ],
      "name": "isStaking",
      "outputs": [
        {
          "internalType": "bool",
          "name": "",
          "type": "bool"
        }
      ],
      "stateMutability": "view",
      "type": "function"
    },
    {
      "inputs": [],
      "name": "name",
      "outputs": [
        {
          "internalType": "string",
          "name": "",
          "type": "string"
        }
      ],
      "stateMutability": "view",
      "type": "function"
    },
    {
      "inputs": [
        {
          "internalType": "uint256",
          "name": "amount",
          "type": "uint256"
        }
      ],
      "name": "stake",
      "outputs": [],
      "stateMutability": "nonpayable",
      "type": "function"
    },
    {
      "inputs": [
        {
          "internalType": "address",
          "name": "",
          "type": "address"
        }
      ],
      "name": "startTime",
      "outputs": [
        {
          "internalType": "uint256",
          "name": "",
          "type": "uint256"
        }
      ],
      "stateMutability": "view",
      "type": "function"
    },
    {
      "inputs": [
        {
          "internalType": "uint256",
          "name": "amount",
          "type": "uint256"
        }
      ],
      "name": "unstake",
      "outputs": [],
      "stateMutability": "nonpayable",
      "type": "function"
    },
    {
      "inputs": [],
      "name": "withdrawYield",
      "outputs": [],
      "stateMutability": "nonpayable",
      "type": "function"
    }
  ],
  "bytecode": "0x60806040526040518060400160405280600981526020017f546f6b656e4661726d000000000000000000000000000000000000000000000081525060049080519060200190620000519291906200010f565b503480156200005f57600080fd5b5060405162001d4f38038062001d4f8339818101604052810190620000859190620001ed565b81600560006101000a81548173ffffffffffffffffffffffffffffffffffffffff021916908373ffffffffffffffffffffffffffffffffffffffff16021790555080600660006101000a81548173ffffffffffffffffffffffffffffffffffffffff021916908373ffffffffffffffffffffffffffffffffffffffff160217905550505062000323565b8280546200011d906200028a565b90600052602060002090601f0160209004810192826200014157600085556200018d565b82601f106200015c57805160ff19168380011785556200018d565b828001600101855582156200018d579182015b828111156200018c5782518255916020019190600101906200016f565b5b5090506200019c9190620001a0565b5090565b5b80821115620001bb576000816000905550600101620001a1565b5090565b600081519050620001d081620002ef565b92915050565b600081519050620001e78162000309565b92915050565b600080604083850312156200020157600080fd5b60006200021185828601620001d6565b92505060206200022485828601620001bf565b9150509250929050565b60006200023b826200026a565b9050919050565b60006200024f826200022e565b9050919050565b600062000263826200022e565b9050919050565b600073ffffffffffffffffffffffffffffffffffffffff82169050919050565b60006002820490506001821680620002a357607f821691505b60208210811415620002ba57620002b9620002c0565b5b50919050565b7f4e487b7100000000000000000000000000000000000000000000000000000000600052602260045260246000fd5b620002fa8162000242565b81146200030657600080fd5b50565b620003148162000256565b81146200032057600080fd5b50565b611a1c80620003336000396000f3fe608060405234801561001057600080fd5b50600436106100ea5760003560e01c8063702376a71161008c578063a694fc3a11610066578063a694fc3a14610261578063be22f5461461027d578063c828371e1461029b578063e507a8a4146102b9576100ea565b8063702376a7146101f55780637ff3b8be14610213578063980d611614610231576100ea565b80636520745c116100c85780636520745c1461014757806366cfd268146101775780636e1dc66e146101955780636f49712b146101c5576100ea565b806306fdde03146100ef57806320ed8a1d1461010d5780632e17de781461012b575b600080fd5b6100f76102c3565b6040516101049190611549565b60405180910390f35b610115610351565b6040516101229190611513565b60405180910390f35b6101456004803603810190610140919061133e565b610377565b005b610161600480360381019061015c91906112ec565b610800565b60405161016e9190611647565b60405180910390f35b61017f610818565b60405161018c9190611647565b60405180910390f35b6101af60048036038101906101aa91906112ec565b61085f565b6040516101bc9190611647565b60405180910390f35b6101df60048036038101906101da91906112ec565b610877565b6040516101ec91906114f8565b60405180910390f35b6101fd610897565b60405161020a91906114f8565b60405180910390f35b61021b6108eb565b6040516102289190611647565b60405180910390f35b61024b600480360381019061024691906112ec565b610931565b6040516102589190611647565b60405180910390f35b61027b6004803603810190610276919061133e565b610996565b005b610285610d40565b604051610292919061152e565b60405180910390f35b6102a3610d66565b6040516102b09190611647565b60405180910390f35b6102c1610dad565b005b600480546102d090611856565b80601f01602080910402602001604051908101604052809291908181526020018280546102fc90611856565b80156103495780601f1061031e57610100808354040283529160200191610349565b820191906000526020600020905b81548152906001019060200180831161032c57829003601f168201915b505050505081565b600660009054906101000a900473ffffffffffffffffffffffffffffffffffffffff1681565b60011515600160003373ffffffffffffffffffffffffffffffffffffffff1673ffffffffffffffffffffffffffffffffffffffff16815260200190815260200160002060009054906101000a900460ff1615151480156104155750806000803373ffffffffffffffffffffffffffffffffffffffff1673ffffffffffffffffffffffffffffffffffffffff1681526020019081526020016000205410155b610454576040517f08c379a000000000000000000000000000000000000000000000000000000000815260040161044b90611627565b60405180910390fd5b600061045f3361104b565b905042600260003373ffffffffffffffffffffffffffffffffffffffff1673ffffffffffffffffffffffffffffffffffffffff16815260200190815260200160002081905550600082905060009250806000803373ffffffffffffffffffffffffffffffffffffffff1673ffffffffffffffffffffffffffffffffffffffff16815260200190815260200160002060008282546104fc919061175f565b92505081905550600560009054906101000a900473ffffffffffffffffffffffffffffffffffffffff1673ffffffffffffffffffffffffffffffffffffffff1663a9059cbb33836040518363ffffffff1660e01b81526004016105609291906114cf565b602060405180830381600087803b15801561057a57600080fd5b505af115801561058e573d6000803e3d6000fd5b505050506040513d601f19601f820116820180604052508101906105b29190611315565b5081600360003373ffffffffffffffffffffffffffffffffffffffff1673ffffffffffffffffffffffffffffffffffffffff1681526020019081526020016000206000828254610602919061167e565b925050819055506106876040518060400160405280601a81526020017f7374616b696e6742616c616e6365206f66202573206973202573000000000000815250336000803373ffffffffffffffffffffffffffffffffffffffff1673ffffffffffffffffffffffffffffffffffffffff16815260200190815260200160002054611131565b60008060003373ffffffffffffffffffffffffffffffffffffffff1673ffffffffffffffffffffffffffffffffffffffff168152602001908152602001600020541415610721576000600160003373ffffffffffffffffffffffffffffffffffffffff1673ffffffffffffffffffffffffffffffffffffffff16815260200190815260200160002060009054906101000a900460ff169050505b6107ad6040518060400160405280601a81526020017f69735374616b696e6720626f6f6c206f6620257320697320257300000000000081525033600160003373ffffffffffffffffffffffffffffffffffffffff1673ffffffffffffffffffffffffffffffffffffffff16815260200190815260200160002060009054906101000a900460ff166111d0565b3373ffffffffffffffffffffffffffffffffffffffff167f85082129d87b2fe11527cb1b3b7a520aeb5aa6913f88a3d8757fe40d1db02fdd826040516107f39190611647565b60405180910390a2505050565b60036020528060005260406000206000915090505481565b6000600360003373ffffffffffffffffffffffffffffffffffffffff1673ffffffffffffffffffffffffffffffffffffffff16815260200190815260200160002054905090565b60026020528060005260406000206000915090505481565b60016020528060005260406000206000915054906101000a900460ff1681565b6000600160003373ffffffffffffffffffffffffffffffffffffffff1673ffffffffffffffffffffffffffffffffffffffff16815260200190815260200160002060009054906101000a900460ff16905090565b60008060003373ffffffffffffffffffffffffffffffffffffffff1673ffffffffffffffffffffffffffffffffffffffff16815260200190815260200160002054905090565b600080600260008473ffffffffffffffffffffffffffffffffffffffff1673ffffffffffffffffffffffffffffffffffffffff168152602001908152602001600020549050600042905060008282610989919061175f565b9050809350505050919050565b600081118015610a50575080600560009054906101000a900473ffffffffffffffffffffffffffffffffffffffff1673ffffffffffffffffffffffffffffffffffffffff166370a08231336040518263ffffffff1660e01b81526004016109fd919061147d565b60206040518083038186803b158015610a1557600080fd5b505afa158015610a29573d6000803e3d6000fd5b505050506040513d601f19601f82011682018060405250810190610a4d9190611367565b10155b610a8f576040517f08c379a0000000000000000000000000000000000000000000000000000000008152600401610a8690611607565b60405180910390fd5b60011515600160003373ffffffffffffffffffffffffffffffffffffffff1673ffffffffffffffffffffffffffffffffffffffff16815260200190815260200160002060009054906101000a900460ff1615151415610b4d576000610af33361104b565b905080600360003373ffffffffffffffffffffffffffffffffffffffff1673ffffffffffffffffffffffffffffffffffffffff1681526020019081526020016000206000828254610b44919061167e565b92505081905550505b600560009054906101000a900473ffffffffffffffffffffffffffffffffffffffff1673ffffffffffffffffffffffffffffffffffffffff166323b872dd3330846040518463ffffffff1660e01b8152600401610bac93929190611498565b602060405180830381600087803b158015610bc657600080fd5b505af1158015610bda573d6000803e3d6000fd5b505050506040513d601f19601f82011682018060405250810190610bfe9190611315565b50806000803373ffffffffffffffffffffffffffffffffffffffff1673ffffffffffffffffffffffffffffffffffffffff1681526020019081526020016000206000828254610c4d919061167e565b9250508190555042600260003373ffffffffffffffffffffffffffffffffffffffff1673ffffffffffffffffffffffffffffffffffffffff1681526020019081526020016000208190555060018060003373ffffffffffffffffffffffffffffffffffffffff1673ffffffffffffffffffffffffffffffffffffffff16815260200190815260200160002060006101000a81548160ff0219169083151502179055503373ffffffffffffffffffffffffffffffffffffffff167febedb8b3c678666e7f36970bc8f57abf6d8fa2e828c0da91ea5b75bf68ed101a82604051610d359190611647565b60405180910390a250565b600560009054906101000a900473ffffffffffffffffffffffffffffffffffffffff1681565b6000600260003373ffffffffffffffffffffffffffffffffffffffff1673ffffffffffffffffffffffffffffffffffffffff16815260200190815260200160002054905090565b6000610db83361104b565b90506000811180610e0857506000600360003373ffffffffffffffffffffffffffffffffffffffff1673ffffffffffffffffffffffffffffffffffffffff16815260200190815260200160002054115b610e47576040517f08c379a0000000000000000000000000000000000000000000000000000000008152600401610e3e906115e7565b60405180910390fd5b6000600360003373ffffffffffffffffffffffffffffffffffffffff1673ffffffffffffffffffffffffffffffffffffffff1681526020019081526020016000205414610f27576000600360003373ffffffffffffffffffffffffffffffffffffffff1673ffffffffffffffffffffffffffffffffffffffff1681526020019081526020016000205490506000600360003373ffffffffffffffffffffffffffffffffffffffff1673ffffffffffffffffffffffffffffffffffffffff168152602001908152602001600020819055508082610f23919061167e565b9150505b42600260003373ffffffffffffffffffffffffffffffffffffffff1673ffffffffffffffffffffffffffffffffffffffff16815260200190815260200160002081905550600660009054906101000a900473ffffffffffffffffffffffffffffffffffffffff1673ffffffffffffffffffffffffffffffffffffffff166340c10f1933836040518363ffffffff1660e01b8152600401610fc89291906114cf565b600060405180830381600087803b158015610fe257600080fd5b505af1158015610ff6573d6000803e3d6000fd5b505050503373ffffffffffffffffffffffffffffffffffffffff167f92044e3943309ee5950e21bc7421d02c1df75f0df33c0d97c1143687b49a4c57826040516110409190611647565b60405180910390a250565b600080670de0b6b3a764000061106084610931565b61106a9190611705565b905060006201518090506000818361108291906116d4565b90506000670de0b6b3a7640000826000808973ffffffffffffffffffffffffffffffffffffffff1673ffffffffffffffffffffffffffffffffffffffff168152602001908152602001600020546110d99190611705565b6110e391906116d4565b90506111256040518060400160405280601981526020017f74686520726177207965696c64206f66202573206973202573000000000000008152503383611131565b80945050505050919050565b6111cb838383604051602401611149939291906115a9565b6040516020818303038152906040527f07c81217000000000000000000000000000000000000000000000000000000007bffffffffffffffffffffffffffffffffffffffffffffffffffffffff19166020820180517bffffffffffffffffffffffffffffffffffffffffffffffffffffffff838183161783525050505061126f565b505050565b61126a8383836040516024016111e89392919061156b565b6040516020818303038152906040527fc91d5ed4000000000000000000000000000000000000000000000000000000007bffffffffffffffffffffffffffffffffffffffffffffffffffffffff19166020820180517bffffffffffffffffffffffffffffffffffffffffffffffffffffffff838183161783525050505061126f565b505050565b60008151905060006a636f6e736f6c652e6c6f679050602083016000808483855afa5050505050565b6000813590506112a7816119a1565b92915050565b6000815190506112bc816119b8565b92915050565b6000813590506112d1816119cf565b92915050565b6000815190506112e6816119cf565b92915050565b6000602082840312156112fe57600080fd5b600061130c84828501611298565b91505092915050565b60006020828403121561132757600080fd5b6000611335848285016112ad565b91505092915050565b60006020828403121561135057600080fd5b600061135e848285016112c2565b91505092915050565b60006020828403121561137957600080fd5b6000611387848285016112d7565b91505092915050565b61139981611793565b82525050565b6113a8816117a5565b82525050565b6113b7816117db565b82525050565b6113c6816117ff565b82525050565b60006113d782611662565b6113e1818561166d565b93506113f1818560208601611823565b6113fa81611915565b840191505092915050565b600061141260138361166d565b915061141d82611926565b602082019050919050565b6000611435601c8361166d565b91506114408261194f565b602082019050919050565b600061145860128361166d565b915061146382611978565b602082019050919050565b611477816117d1565b82525050565b60006020820190506114926000830184611390565b92915050565b60006060820190506114ad6000830186611390565b6114ba6020830185611390565b6114c7604083018461146e565b949350505050565b60006040820190506114e46000830185611390565b6114f1602083018461146e565b9392505050565b600060208201905061150d600083018461139f565b92915050565b600060208201905061152860008301846113ae565b92915050565b600060208201905061154360008301846113bd565b92915050565b6000602082019050818103600083015261156381846113cc565b905092915050565b6000606082019050818103600083015261158581866113cc565b90506115946020830185611390565b6115a1604083018461139f565b949350505050565b600060608201905081810360008301526115c381866113cc565b90506115d26020830185611390565b6115df604083018461146e565b949350505050565b6000602082019050818103600083015261160081611405565b9050919050565b6000602082019050818103600083015261162081611428565b9050919050565b600060208201905081810360008301526116408161144b565b9050919050565b600060208201905061165c600083018461146e565b92915050565b600081519050919050565b600082825260208201905092915050565b6000611689826117d1565b9150611694836117d1565b9250827fffffffffffffffffffffffffffffffffffffffffffffffffffffffffffffffff038211156116c9576116c8611888565b5b828201905092915050565b60006116df826117d1565b91506116ea836117d1565b9250826116fa576116f96118b7565b5b828204905092915050565b6000611710826117d1565b915061171b836117d1565b9250817fffffffffffffffffffffffffffffffffffffffffffffffffffffffffffffffff048311821515161561175457611753611888565b5b828202905092915050565b600061176a826117d1565b9150611775836117d1565b92508282101561178857611787611888565b5b828203905092915050565b600061179e826117b1565b9050919050565b60008115159050919050565b600073ffffffffffffffffffffffffffffffffffffffff82169050919050565b6000819050919050565b60006117e6826117ed565b9050919050565b60006117f8826117b1565b9050919050565b600061180a82611811565b9050919050565b600061181c826117b1565b9050919050565b60005b83811015611841578082015181840152602081019050611826565b83811115611850576000848401525b50505050565b6000600282049050600182168061186e57607f821691505b60208210811415611882576118816118e6565b5b50919050565b7f4e487b7100000000000000000000000000000000000000000000000000000000600052601160045260246000fd5b7f4e487b7100000000000000000000000000000000000000000000000000000000600052601260045260246000fd5b7f4e487b7100000000000000000000000000000000000000000000000000000000600052602260045260246000fd5b6000601f19601f8301169050919050565b7f4e6f7468696e6720746f20776974686472617700000000000000000000000000600082015250565b7f596f752063616e6e6f74207374616b65207a65726f20746f6b656e7300000000600082015250565b7f4e6f7468696e6720746f20756e7374616b650000000000000000000000000000600082015250565b6119aa81611793565b81146119b557600080fd5b50565b6119c1816117a5565b81146119cc57600080fd5b50565b6119d8816117d1565b81146119e357600080fd5b5056fea264697066735822122010ec70afa927ef1a8cd4865d93a1caded44bb1cfaf2f588bc2994c2d0ab66dce64736f6c63430008040033",
  "linkReferences": {},
  "deployedLinkReferences": {}
}